:020000040800F2
:1000000040010320C9020008DF2F0008692A000808
:10001000DB2F000871090008D5400008000000002F
:100020000000000000000000000000000D020008B9
:100030000D0A000800000000610200086D3500088C
:10004000E3020008E3020008E3020008E3020008FC
:10005000E3020008E3020008E3020008E3020008EC
:10006000E3020008E3020008E3020008E3020008DC
:10007000E3020008E3020008E3020008E3020008CC
:10008000E3020008E3020008E3020008E3020008BC
:10009000E3020008E3020008E3020008E3020008AC
:1000A000E302000805360008E3020008E302000846
:1000B00015360008E3020008E3020008E302000826
:1000C000E3020008E3020008E3020008E30200087C
:1000D000E302000809400008E30200085940000854
:1000E000110A0008E3020008E3020008E302000826
:1000F000E3020008E3020008E3020008E30200084C
:10010000E3020008E302000825360008E3020008C5
:10011000E3020008E3020008E302000835360008A5
:10012000E3020008E3020008E3020008E30200081B
:10013000E3020008E3020008E3020008E30200080B
:10014000E3020008E3020008E3020008E3020008FB
:10015000E3020008E3020008E3020008E3020008EB
:10016000E3020008E3020008E3020008E3020008DB
:10017000E3020008E3020008E302000800000000B8
:10018000E3020008E3020008E3020008E3020008BB
:10019000E3020008E3020008E3020008E3020008AB
:1001A000E3020008E3020008E3020008E30200089B
:1001B000E3020008E3020008E3020008E30200088B
:1001C000E3020008E302000800000000E302000868
:1001D000E3020008E3020008E3020008E30200086B
:1001E000E3020008E3020008E3020008E30200085B
:1001F000E3020008E3020008DFF80CD000F0D2FAB6
:100200000048004779680008400103202B4B19681B
:100210000868B0E8F04F80F30988BFF36F8F4FF0A4
:10022000000080F311887047000000000648006855
:10023000006880F3088862B661B6BFF34F8FBFF3E2
:100240006F8F00DF00BF00BF08ED00E0DFF80C009B
:10025000016841F470010160704700BF88ED00E063
:10026000EFF30980BFF36F8F144B1A681EF0100F65
:1002700008BF20ED108A20E9F04F106008B44FF05D
:10028000500072B680F31188BFF34F8FBFF36F8FAA
:1002900062B60BF033FD4FF0000080F3118808BC0C
:1002A00019680868B0E8F04F1EF0100F08BFB0ECF6
:1002B000108A80F30988BFF36F8F7047DC0E02202D
:1002C000EFF3058070470000064880470648004766
:1002D000FEE7FEE7FEE7FEE7FEE7FEE7FEE7FEE7F6
:1002E000FEE7FEE7F1350008F90100082DE9F05FAF
:1002F0000546002092469B46884606468146402495
:100300001BE0284641464746224600F082F8534605
:100310005A46C01A914110D311461846224600F0A1
:1003200069F82D1A67EB01084F462246012000218B
:1003300000F060F817EB00094E41201EA4F1010403
:10034000DFDC484631462A464346BDE8F09F40EA96
:1003500001039B0703D009E008C9121F08C0042A43
:10036000FAD203E011F8013B00F8013B521EF9D22A
:100370007047D2B201E000F8012B491EFBD2704752
:100380000022F6E710B513460A4604461946FFF761
:10039000F0FF204610BD30B505462A460B4612F840
:1003A000010B13F8014B08B1A042F8D01CB1002892
:1003B00002D06D1CF1E7284630BD421C10F8011B2D
:1003C0000029FBD1801A704730B50B46014600204A
:1003D0002022012409E021FA02F59D4205D303FA07
:1003E00002F5491B04FA02F52844151EA2F1010288
:1003F000F1DC30BD202A04DB203A00FA02F10020B3
:1004000070479140C2F1200320FA03F31943904052
:100410007047202A04DB203A21FA02F000217047BD
:1004200021FA02F3D040C2F120029140084319465C
:1004300070472DE9FE4F804681EA0300C00F0C464D
:10044000009021F0004123F00045B8EB0200A941E3
:1004500005D24046214690461C460B46024623F0F4
:100460000040104347D0270DC7F30A00C3F30A51D9
:100470000290401A019040286BDAC3F3130040F455
:10048000801B0098924620B10023D2EB030A63EB55
:100490000B0B01985946C0F140025046FFF7AAFFE6
:1004A00006460D4650465946019A00F08DF910EB6C
:1004B00008006141002487EA115284EAE7731A4375
:1004C00040D0009A62B3019A012A4FEA075215DC24
:1004D000001B61EB02014FF0004202EA0752CDE936
:1004E0000042001C41F5801132462B4600F08DF988
:1004F00003B0BDE8F08F40462146F9E7001B61EBF1
:100500000201001C41F5801300185B412018A2F580
:10051000001747EB030140EAD570B6196D4111E0B1
:100520006D084FEA360645EAC0754FEA0752001BD0
:1005300061EB0201001C41F5801149084FEA3000CF
:100540000019514132462B4603B0BDE8F04F00F090
:100550004DB90098012240000023D0EB020263EB6A
:10056000E073009821464FEAE074B8EB000061EBBD
:100570000401E9E783F000435BE781F0004158E7BD
:100580002DE9FE4F81EA030404F0004421F000410C
:1005900000944FF0000B23F0004350EA01045ED0BA
:1005A00052EA03045BD0C3F30A54C1F30A552C4446
:1005B000A4F2F3340194A0FB0254C1F3130141F4FB
:1005C0008011C3F3130343F4801301FB024400FBC7
:1005D000034E840A970A44EA815447EA8357A4FBEE
:1005E000076802958D0A05FB07854FEA932C04FBEB
:1005F0000C542705029D4FEA065847EA1637B5EB1B
:1006000008056EEB070C870E920E47EA811742EA47
:100610008312A7FB0201B6EB0B0164EB00042B0D68
:1006200043EA0C335E1844EB1C50DA465146E7FBB4
:100630000201C5F313044FEA0B3343EA14534FEAA4
:100640000432019C43EA0603A4F10C040294009CCA
:10065000CDE900B400F0D9F803B0BDE8F08F002078
:100660000146F9E72DE9F04D81EA030404F0004B5F
:1006700021F0004514464FF0000A23F0004150EAF3
:10068000050220D054EA01021DD0C5F30A570246E4
:10069000C5F31303C1F31300C1F30A5640F48015E8
:1006A00043F48013A7EB0608101BD64608F2FD386A
:1006B00073EB050002D308F1010801E092185B41D9
:1006C000B8F1000F03DA00200146BDE8F08D0020EC
:1006D0004FF48011064684460EE0171B73EB0507A6
:1006E00005D3121B63EB050306434CEA010C4908D2
:1006F0004FEA300092185B4150EA0107EDD152EA0F
:10070000030012D082EA040083EA0501084305D001
:10071000101BAB4106D20122002306E000224FF05D
:10072000004302E06FF0010253101AEB06004CEB9D
:10073000085110EB0A0041EB0B01BDE8F04D00F051
:1007400055B8C1F30A52C1F3130140F2FF3341F42B
:1007500080119A4202DA00200146704740F233438A
:100760009A42A2F2334202DC5242FFF752BEFFF736
:1007700041BE000030B5041E71F1000404DB4FF0EF
:100780000044404264EB0101141E73F1000405DBD8
:100790001C464FF00043524263EB0403994208BFEA
:1007A000904230BD064C074D06E0E06840F0010382
:1007B00094E8070098471034AC42F6D3FFF720FDC9
:1007C000F4CE000814CF0008202A06DBCB17203A0D
:1007D00041FA02F043EAE07306E041FA02F3D04046
:1007E000C2F12002914008431946704710B5141E0B
:1007F00073F1000408DA401C41F1000192185B41DA
:100800001A4301D120F0010010BD2DE9F04D9246B0
:100810009B4611B1B1FA81F202E0B0FA80F22032C7
:100820009046FFF7E7FD04460F4640EA0A0041EA1A
:100830000B0153465A46084313D0114653EA0100B0
:1008400019D0C8F140025046FFF7E3FD05460E46B9
:10085000504659464246FFF7CDFD084305D00120DA
:1008600004E020463946BDE8F08D0020054346EA05
:10087000E0762C4337430A986305E40AA0EB0800AE
:100880000022FD0A44EA47540A3002D500200146FE
:10089000E9E7010510196941DDE9084500196941D9
:1008A000BDE8F04DA2E770B58D1810F8014B14F0BB
:1008B000030201D110F8012B231106D110F8013BDE
:1008C00003E010F8016B01F8016B521EF9D1ABB1D6
:1008D00010F8012B04F00C048A1A0C2C03D0A2EBA4
:1008E00084129B1C08E010F8014BA2EB0422F8E7ED
:1008F00012F8014B01F8014B5B1EF9D5A942D4D384
:10090000002070BD10B507E00AF080FE00F088FB03
:100910000AF0C4FE02F0E6FD024800780028F3D198
:1009200010BD0000860F022010B50446282000F0FC
:100930008BFE9CB1012C04D14FF48810094948600A
:1009400005E0022C03D14FF4041006494860054924
:10095000054800F0AFFC282000F084FE0348047036
:1009600010BD000040DB0220001002405F0F02209B
:1009700000BFFEE710B500BF00BF00BF00BF00BF53
:10098000BFF34F8F00BF00BF00BF00BF00BF00BF5D
:10099000BFF36F8F00BF00BF00BF00201149086088
:1009A0001148006840F400300F49086000BF00BFE4
:1009B00000BFBFF34F8F00BF00BF00BF00BF00BF2D
:1009C00000BFBFF36F8F00BF00BF00BF00BF02F0CA
:1009D00037FC04484C30006840F0040001494C31B9
:1009E000086010BD50EF00E014ED00E042F62F214A
:1009F00042F2273005F058FD42F62F2142F227300F
:100A000005F03CFD05F080FF00BFFEE770470000E9
:100A10002DE9F04FA1B0F748006800F4004000282D
:100A20007DD0F548007801280FD1F44800780128DE
:100A300002D10020F24908800220EF49087000220C
:100A40000121F04800F0E4FAB8E2EB48007802280F
:100A5000FAD1EA48007801287ED100200AF04CFD46
:100A6000E748008840F40040E549088008460088CF
:100A7000C0F30E0ABAF1020F12DC00200880012038
:100A8000DD49087008460078FFF74EFF4FF400403C
:100A9000D849086001200AF02FFD21B0BDE8F08F91
:100AA0000021AAF10200D84A11540020D44908803C
:100AB000D648007A002876D10AF0A8FDD4480078FC
:100AC000D0B9D1480078FF2816D1CF484078FF2808
:100AD00012D1CD488078FF280ED10120CC49087072
:100AE000C948C078CB490870C7480079CA4908701E
:100AF000C5484079C94908806521022002F06CFB95
:100B0000C6490988884215DC0020BD4908800120BB
:100B1000B949087008460078FFF706FF00E055E283
:100B20004FF40040B34908600AF0B8FD01200AF014
:100B3000E3FCB2E7BA4802788021B24800F068FAD4
:100B4000B7480078C043B6490870B6480078401CE2
:100B5000B4490870202100E021E219A8FFF710FC39
:100B6000402109A8FFF70CFCA74804784678012724
:100B7000B946012E03D105794FF0050822E0A248BD
:100B800085784FF00308002009E0A91C091A9E4A45
:100B9000515CC0F11F0201AB9954411CC8B220281E
:100BA000F3DB00200BE0F5E19F49095C01AA125C30
:100BB000914202D04FF0000903E0411CC8B2202846
:100BC000F2DB00BF681DF02800DD00270022802135
:100BD0008C4800F01DFA012291038A4800F018FAAF
:100BE0003FB305EB0801002319AA874806F02AFE47
:100BF00000200DE041194144834A515C01B909E0EC
:100C000041194144804A515C09AA1154411CC8B29F
:100C10003028EFDB00BF0AF0FFF9834683490090DC
:100C200001EB841009AB202219A90AF02CFA00B9B3
:100C3000002701228021734800F0EAF900224FF4D6
:100C40008041704800F0E4F9002F7BD0012E79D16B
:100C50006D488078764908706B4890F803B0754805
:100C600010F80B00FF2835D100200AE0411D664A2C
:100C7000525CABF1010100EBC1116F4B5A54411CA6
:100C8000C8B2A842F2DB01206A4901F80B006B48A8
:100C90000078401C694908706548007883450BD18D
:100CA0002846E91705EBD1614A1161490978491EC7
:100CB00002EB8101624A1170604800785C49097852
:100CC000884207D15E48007841010023564A5A48BD
:100CD00006F0B8FD594800785549097888422FD167
:100CE00001205849087058480078142802DB142065
:100CF000554908705548007853490978C1EB0111EE
:100D0000534A02F8110004204F490978C1EB011140
:100D100002EB4101487001204B490978C1EB0111F8
:100D200002EB41018870002047490978C1EB0111AD
:100D300002EB4101C87044480078401C42490870E9
:100D400025E1FFE7B9F1000F3ED0EFB3022E3BD112
:100D50002D4AD1783F4A125DFF2A09D1012907D1D6
:100D60003D4A1278521C3C4B1A700122394B1A55DD
:100D7000364A1278D21CD0B2234A125CFF2A37D1ED
:100D8000314A1278142A02DB14222F4B1A702F4A90
:100D900012782D4B1B78C3EB0313DFF8B4C00CF8AB
:100DA00013200422284B1B78C3EB03130CEB4303E3
:100DB0005A700222244B1B78C3EB03130CEB430342
:100DC0009A70214A127800E048E0C2EB02126346B2
:100DD00003EB4202D47000221B4B1B78C3EB0313BE
:100DE0000CEB43031A71184A1278521C164B1A70F6
:100DF000CDE00000143C01405F0F02205E0F022096
:100E0000D40E0220000402405C170220500F022082
:100E10007E0F02206C0F02206D0F02206E0F022049
:100E2000C20E0220790F022022E502205C1102206E
:100E30007B0F0220E4E1022002E202207D0F02206B
:100E40007A0F02207C0F0220860F0220700F0220F2
:100E500074E50220A8DE0220760F0220B9F1000F0F
:100E600053D0EFB3032E50D1594AD178594A125D6D
:100E7000FF2A09D1012907D1574A1278521C564B33
:100E80001A700122534B1A55544A1278D21CD0B210
:100E90004F4A125CFF2A37D1514A1278142A02DBDA
:100EA00014224F4B1A704D4A12784D4B1B78C3EBEE
:100EB0000313DFF830C10CF813200422484B1B78D1
:100EC000C3EB03130CEB43035A700322444B1B7810
:100ED000C3EB03130CEB43039A70414A127800E012
:100EE00013E0C2EB0212634603EB4202D47000220D
:100EF0003B4B1B78C3EB03130CEB43031A71384ACB
:100F00001278521C364B1A7041E0B9F1000F3ED0F6
:100F1000EFB3042E3BD12E49C87801280CD13249B9
:100F2000095DFF2932D131490978491C2F4A1170D6
:100F300001212D4A115529E0022812D1244A1179A4
:100F4000264A127891420BD1294A125DFF2A07D115
:100F5000284A1278521C274B1A700122244B1A552A
:100F600014E0032812D11A4A11791C4A12789142CE
:100F70000BD1214A125DFF2A07D1204A1278521C58
:100F80001E4B1A7001221C4B1A5500BF00BF0AF0FD
:100F900085FB00E000BF01200AF0AEFA06E0184829
:100FA0000078022802D10120154908700120154956
:100FB000087001221146144800F02AF81148007800
:100FC000FFF7B2FC4FF400401049086000BF64E531
:100FD0005C170220B6DE0220780F0220700F02207C
:100FE000860F022074E502204AE50220830F0220CA
:100FF00058E50220840F022066E50220850F0220BA
:101000005E0F02205F0F022000040240143C0140EA
:1010100002F001030BB1816101E00B0483617047B1
:1010200010B598B0202110A8FFF7AAF94021684612
:10103000FFF7A6F965480078642804DB0A206349B5
:10104000087018B010BD61480078401EC0EB001059
:101050005F4901EB40008078012851D15B4800785E
:10106000401EC0EB001011F810005A490870574894
:101070000078401EC0EB0010554901EB400040785D
:10108000544948702120887050480078401EC0EBB9
:1010900000104F4901EB400080784E49C870084667
:1010A0008478002008E04C490A5CA4F11D01014449
:1010B000484B5A54411CC8B22028F4DB002310AA24
:1010C000E11C444806F0BEFB694610A809F024FF65
:1010D000002007E01DF80020E11C01443D4B5A545C
:1010E000411CC8B23028F5DB00213A4A04F1330034
:1010F0001154022039490870104601F025FE5DE0C8
:1011000032480078401EC0EB0010314911F8100041
:10111000304908702D480078401EC0EB00102C4963
:1011200001EB400040782B49487022208870274806
:101130000078401EC0EB0010254901EB400080788C
:101140002449C87021480078401EC0EB0010204997
:1011500001EB4000C0781F490871084684780020E0
:1011600008E01D490A5CA4F11D010144194B5A54C1
:10117000411CC8B22028F4DB002310AAE11C15484A
:1011800006F060FB694610A809F0C6FE002007E0E3
:101190001DF80020E11C01440E4B5A54411CC8B2FA
:1011A0003028F5DB00210B4A04F1330011540220F2
:1011B0000A490870104601F0C7FD00BF03480078D7
:1011C000401E0249087000BF3BE70000860F022066
:1011D00074E50220C4DE022022E502205E0F022018
:1011E00070B50446A56D00F079F9064694F835000F
:1011F000022808D08020606500BF002084F83400F9
:1012000000BF012070BD2068006820F01600216832
:1012100008602068406920F0800021684861206CE7
:1012200008B9A06C28B12068006820F00800216887
:1012300008602068006820F001002168086010E064
:1012400000F04CF9801B05280BD920206065032095
:1012500084F8350000BF002084F8340000BF03206C
:10126000D0E72068006800F001000028E8D194F879
:101270005C103F208840A860012084F8350000BF42
:10128000002084F8340000BF00BFBBE7014691F89E
:101290003500022803D080204865012070470520D2
:1012A00081F835000868006820F001000A681060C5
:1012B0000020F3E7F8B502460B4600210025002484
:1012C000002000BFDEE0012606FA01F51E6806EAEE
:1012D0000504AC4272D11E7906F00306012E04D03B
:1012E0001E7906F00306022E13D190684F000326E4
:1012F000BE40B0434F00DE68BE403043906050684F
:1013000001268E40B0431E79C6F300168E4030434E
:1013100050601E7906F00306032E09D0D0684F00F6
:101320000326BE40B0434F009E68BE403043D060AD
:101330001E7906F00306022E13D1CF0802F1200613
:1013400056F827004E07F70E0F26BE40B0434F0752
:10135000FF0E1E69BE403043CF0802F1200646F85A
:10136000270010684F000326BE40B0431E7906F0E8
:1013700003064F00BE40304310605E6806F44036FE
:10138000002E7ED000BF414E366846F480463F4F67
:101390003E603E46366806F48046009600BF00BFB9
:1013A0003B4E8F0856F827008E07370F0F26BE409A
:1013B000B043384EB24202D100262EE061E0364EF4
:1013C000B24201D1012628E0344EB24201D10226B8
:1013D00023E0334EB24201D103261EE0314EB24229
:1013E00001D1042619E0304EB24201D1052614E0A5
:1013F0002E4EB24201D106260FE02D4EB24201D14F
:1014000007260AE02B4EB24201D1082605E02A4EFB
:10141000B24201D1092600E00A268F073F0FBE40E5
:1014200030431B4E8F0846F82700244E3068A043F7
:101430005E6806F4801606B12043204E3060361DEB
:101440003068A0435E6806F4001606B120431B4EC8
:10145000361D3060194E361F3068A0435E6806F4B2
:10146000003606B12043154E361F3060361F3068F7
:10147000A0435E6806F4803606B120430F4E083E56
:101480003060491C1029FFF41EAFF8BD44380240FB
:1014900008380140000002400004024000080240F9
:1014A000000C0240001002400014024000180240EC
:1014B000001C02400020024000240240083C014081
:1014C000024613690B400BB1012000E00020704779
:1014D0000AB1816101E00B04836170470148006833
:1014E00070470000B80E02200348006803490978DD
:1014F0000844014908607047B80E0220C00E02205F
:1015000010B50A48006840F40070084908600846B1
:10151000006840F480700860032000F0EFF80F20AE
:1015200000F006F800F08EF8002010BD003C0240EC
:1015300070B504460E4800784FF47A71B1FBF0F0B4
:101540000C490968B1FBF0F5284600F095FD08B19B
:10155000012070BD102C07D200222146501E00F041
:101560008EF80548046001E00120F2E70020F0E772
:10157000C00E0220680F0220BC0E02204178154ADE
:1015800011600178F9B1121D41681160017B0907F2
:10159000C27A41EA0261827A41EAC241427B41EA6F
:1015A0008241827B41EA4241C27B41EA0241427A66
:1015B00041EA0221027A41EA420102781143054AD6
:1015C0000832116005E00021024A121D1160121D4F
:1015D0001160704798ED00E000BF00BF00BFBFF38F
:1015E0005F8F00BF00BF00BF0548006820F4803057
:1015F000034908600020024970310860704700000C
:1016000024ED00E040F001010D4A11600C497039F1
:10161000096841F480310A4A703A116000BF00BF86
:1016200000BFBFF34F8F00BF00BF00BF00BF00BFB0
:1016300000BFBFF36F8F00BF00BF00BF7047000047
:1016400094ED00E07047000000BF00F01F02012190
:101650009140034A430942F8231000BF704700003D
:1016600080E100E000BF00F01F020121914042092B
:10167000920002F1E022C2F8001100BF70472DE98C
:10168000F05F80460D461646002701F0A9FC07468C
:1016900039462A46334601F00700C0F1070ABAF17D
:1016A000040F02D94FF0040A01E0C0F1070AD14645
:1016B00000F1040ABAF1070F02D24FF0000A01E06C
:1016C000A0F1030AD4464FF0010A0AFA09FAAAF176
:1016D000010A0AEA020A0AFA0CFA4FF0010B0BFAA5
:1016E0000CFBABF1010B0BEA030B4AEA0B0421469E
:1016F000404601F07DFCBDE8F09F000000BF00F017
:101700000702064B19684FF6FF031940044B0B43C1
:1017100043EA0221014B196000BF70470CED00E065
:101720000000FA0538B5002400BF2048006840F0EA
:1017300080501E4908600846006800F08050009004
:1017400000BF00BF1A48006840F4803018490860A4
:10175000FFF7C4FE044607E0FFF7C0FE001BB0F52C
:101760007A7F01D9032038BD1148406800F48030E9
:10177000B0F5803FF0D10E48006840F400300C49CD
:101780000860FFF7ABFE044607E0FFF7A7FE001B6B
:10179000B0F57A7F01D90320E5E70548406800F4F9
:1017A0000030B0F5003FF0D10020DCE740380240C7
:1017B0000070004070B504460D4600260CB90120AB
:1017C00070BD5C48006800F00F00A8420ED2594876
:1017D000006820F00F00284356490860084600685A
:1017E00000F00F00A84201D00120E9E7207800F0C6
:1017F000020002281DD1207800F00400042805D141
:101800004D48006840F4E0504B490860207800F0F3
:101810000800082805D14848006840F4604046495F
:1018200008604548006820F0F000A168084342497C
:101830000860207800F0010090B36068012807D1AB
:101840003D4808380068C0F34040A0B90120B7E720
:101850006068022807D1384808380068C0F3406043
:1018600048B90120ACE7344808380068C0F34000AC
:1018700008B90120A4E73048006820F0030061683F
:1018800008432D490860FFF729FE064609E0FFF7E7
:1018900025FE801B41F28831884202D903208FE760
:1018A00007E02548006800F00C006168B0EB810F8C
:1018B000EDD12048006800F00F00A8420ED91D4865
:1018C000006820F00F0028431A49086008460068A5
:1018D00000F00F00A84201D0012071E7207800F04D
:1018E0000400042807D11448006820F4E050E1689F
:1018F000084311490860207800F00800082808D142
:101900000D48006820F46040216940EAC1000A499E
:10191000086000F03FF808490968C1F30311074A5D
:10192000515CC8400649086006480068FFF700FEA1
:10193000002045E7003C02400838024008CB000880
:10194000680F0220BC0E02200148006870470000AA
:10195000680F022000B5FFF7F7FF04490968C1F3DB
:101960008221034A515CC84000BD00000838024093
:1019700018CB000800B5FFF7E7FF04490968C1F379
:101980004231034A515CC84000BD000008380240A3
:1019900018CB00082DE9F047002400250026A146B9
:1019A0002548006800F00C0020B1042805D0082864
:1019B0003AD105E0DFF8849039E0DFF8849036E032
:1019C0001D48001F006800F03F041B48001F00680E
:1019D00000F4800078B11A481749091F0968C1F35B
:1019E0008811A0FB01700146224600233846FEF70D
:1019F0007DFC05460EE011480F49091F0968C1F337
:101A00008811A0FB01700146224600233846FEF7EC
:101A10006DFC05460848001F0068C0F30140401CEB
:101A20004600B5FBF6F902E0DFF8109000BF00BFFA
:101A30004846BDE8F0870000083802400024F40062
:101A400000127A00F8B5044600270CB90120F8BD51
:101A5000207800F00100002871D0F948006800F0FB
:101A60000C0004280DD0F648006800F00C0008288F
:101A700013D1F348001F006800F48000B0F5800F18
:101A80000BD1EF4808380068C0F34040002869D007
:101A90006068002866D10120D9E700BF6068B0F512
:101AA000803F08D1E6480838006840F48030E449B7
:101AB000083908602EE0606868B9E14808380068B5
:101AC00020F48030DE49083908600846006820F4B8
:101AD000802008601EE06068B0F5A02F0DD1D848C6
:101AE0000838006840F48020D54908390860084665
:101AF000006840F4803008600CE0D1480838006885
:101B000020F48030CE49083908600846006820F487
:101B10008020086000BF606890B1FFF7DFFC0546D9
:101B200006E0FFF7DBFC401B642801D903208EE7A9
:101B3000C34808380068C0F340400028F1D011E0E5
:101B4000FFF7CCFC054606E0FFF7C8FC401B642805
:101B500001D903207BE7BA4808380068C0F3404049
:101B60000028F1D1207800F00200022869D1B448A1
:101B7000006800F00C0058B1B148006800F00C009B
:101B800008281CD1AE48001F006800F48000B0B9DE
:101B9000AB4808380068C0F3400020B1E068012875
:101BA00001D0012053E7A6480838006820F0F8006B
:101BB000216940EAC100A2490839086041E0E068B3
:101BC00028B39F480838006840F001009C49083954
:101BD0000860FFF783FC054606E0FFF77FFC401B2B
:101BE000022801D9032032E7954808380068C0F37D
:101BF00040000028F1D092480838006820F0F80032
:101C0000216940EAC1008E490839086019E08C4812
:101C10000838006820F00100894908390860FFF79A
:101C20005DFC054606E0FFF759FC401B022801D980
:101C300003200CE7824808380068C0F34000002801
:101C4000F1D1207800F00800082836D16069D0B1C1
:101C50007B486C30006840F0010079496C310860C5
:101C6000FFF73CFC054606E0FFF738FC401B022866
:101C700001D90320EBE672486C300068C0F34000E5
:101C80000028F1D019E06E486C30006820F00100A7
:101C90006B496C310860FFF721FC054606E0FFF751
:101CA0001DFC401B022801D90320D0E664486C309B
:101CB0000068C0F340000028F1D1207800F0040053
:101CC000042874D15E483830006800F0805080B934
:101CD00000BF5B483830006840F0805058493831C8
:101CE00008600846006800F08050009000BF00BF08
:101CF00001275448006800F48070B0B9514800686A
:101D000040F480704F490860FFF7E8FB054606E0A5
:101D1000FFF7E4FB401B642801D9032097E64948FC
:101D2000006800F480700028F2D000BFA06801288D
:101D300008D143486830006840F0010040496831EC
:101D400008602DE0A06868B93D486830006820F060
:101D500001003B49683108600846006820F0040033
:101D600008601DE0A06805280DD13548683000687E
:101D700040F004003249683108600846006840F0CD
:101D8000010008600CE02E486830006820F0010077
:101D90002B49683108600846006820F0040008609C
:101DA00000BFA068A8B1FFF799FB054609E02EE047
:101DB000FFF794FB401B41F28831884201D9032090
:101DC00045E61F4868300068C0F340000028EFD0A7
:101DD00013E0FFF783FB054608E0FFF77FFB401B9E
:101DE00041F28831884201D9032030E61448683036
:101DF0000068C0F340000028EFD1012F07D1104840
:101E00003830006820F080500D4938310860A069F2
:101E1000002854D00A48006800F00C00082867D059
:101E2000A06902284CD106480838006820F080706C
:101E3000034908390860FFF751FB05460BE0000035
:101E40000838024000700040FFF748FB401B0228A2
:101E500001D90320FBE53F480068C0F3406000283B
:101E6000F2D1D4E907010843616A40EA81110122F5
:101E7000A06AC2EB500041EA00412C20005D41EA1B
:101E800000613020005D41EA00703249091D0860A0
:101E9000081F006840F08070091F0860FFF71EFBF4
:101EA000054606E0FFF71AFB401B022801D9032074
:101EB000CDE528480068C0F340600028F2D047E034
:101EC0002448006820F0807022490860FFF706FB74
:101ED000054606E0FFF702FB401B022801D903205C
:101EE000B5E51C480068C0F340600028F2D12FE03F
:101EF0001848001D0668A069012827D006F4800153
:101F0000E069814222D106F03F01206A81421DD161
:101F100047F6C0703040616AB0EB811F16D106F4FD
:101F200040310122A06AC2EB5000B1EB004F0DD14D
:101F300006F070612C20005DB1EB006F06D106F059
:101F4000E0413020005DB1EB007F01D001207EE553
:101F500000207CE5003802402DE9F04104460E46A1
:101F6000002700BF2079012802D10220BDE8F081BE
:101F70000120207100BF6079012827D10220607103
:101F8000FFF7ACFA054613E0FFF7A8FA401B02285A
:101F90000ED92068406800F0010048B90120607146
:101FA0000220A06000BF0020207100BF0120DDE7FB
:101FB0002068406800F001000028E5D020688068B3
:101FC000E060E06830600120607102E00420A06001
:101FD000012700BF0020207100BF3846C6E710B5BA
:101FE000044604F10C012046FFF7B6FF08B9E0688B
:101FF00010BD0020FCE710B504460CB9012010BD4F
:10200000607920B900202071204600F00FF80220EE
:1020100060712068006840F00400216808600120B9
:1020200060710020A06000BFE9E7000008B500BFB4
:102030000649096841F04001044A116011460968E7
:1020400001F04001009100BF00BF08BD34380240DC
:10205000042808D14FF0E021096941F004014FF054
:10206000E022116107E04FF0E021096921F004014D
:102070004FF0E0221161704770B504462546681E96
:10208000B0F1807F01D301200FE0681E4FF0E02106
:1020900048610F214FF0FF3000F0AAFF00204FF001
:1020A000E021886107200861002070BD70477047FB
:1020B000704710B504460CB9012010BD94F83D00DE
:1020C00028B9002084F83C00204600F029F80220BE
:1020D00084F83D00211D206801F0B4FA012084F845
:1020E000480000BF84F83E0001213F2001554020F8
:1020F000015541200155422001554320015500BFA3
:1021000000BF012084F844004520015546200155B8
:102110004720015500BF012084F83D000020CCE796
:1021200038B5044639492068884217D100BF00BF3E
:102130003748006840F020003549086008460068CC
:1021400000F02000009000BF00BF00BF032201216B
:102150003720FFF794FA3720FFF784FA2D492068DB
:10216000884217D100BF00BF2948006840F008002E
:10217000274908600846006800F00800009000BF8A
:1021800000BF00BF032201213220FFF778FA32207E
:10219000FFF768FA2068B0F1804F17D100BF00BF89
:1021A0001B48006840F001001949086008460068B3
:1021B00000F00100009000BF00BF00BF032201211A
:1021C0001C20FFF75CFA1C20FFF74CFA124920682C
:1021D000884219D100BF00BF0D48001D006840F4BF
:1021E00000300B49091D08600846006800F4003003
:1021F000009000BF00BF00BF032201211920FFF79C
:102200003EFA1920FFF72EFA38BD000000140040F6
:1022100040380240000C004000440140014691F863
:102220003D00012801D001207047022081F83D00C7
:102230000868C06840F001000B68D8601C4B086853
:1022400098421BD00868B0F1804F17D0194B08682E
:10225000984213D0184B086898420FD0174B086863
:1022600098420BD0164B0868984207D0154B086867
:10227000984203D0144B0868984210D108688068CF
:10228000124B00EA0302062A0FD0B2F5803F0CD0B1
:102290000868006840F001000B68186005E00868F5
:1022A000006840F001000B6818600020BCE70000E7
:1022B000000001400004004000080040000C004005
:1022C00000040140004001400018004007000100E8
:1022D000704710B5044620680069C0F34000D8B1CB
:1022E0002068C068C0F34000B0B16FF00200216800
:1022F0000861012020772068806900F0030018B190
:102300002046FFF7E5FF05E0204600F0BEF8204636
:1023100000F0BCF80020207720680069C0F380003E
:10232000D8B12068C068C0F38000B0B16FF004007D
:1023300021680861022020772068806900F44070DD
:1023400018B12046FFF7C4FF05E0204600F09DF8D5
:10235000204600F09BF80020207720680069C0F339
:10236000C000D8B12068C068C0F3C000B0B16FF041
:10237000080021680861042020772068C06900F007
:10238000030018B12046FFF7A3FF05E0204600F048
:102390007CF8204600F07AF8002020772068006959
:1023A000C0F30010D8B12068C068C0F30010B0B10D
:1023B0006FF0100021680861082020772068C0694C
:1023C00000F4407018B12046FFF782FF05E0204678
:1023D00000F05BF8204600F059F8002020772068D4
:1023E000006900F0010058B12068C06800F00100E9
:1023F00030B16FF0010021680861204600F048F814
:1024000020680069C0F3C01058B12068C068C0F3EC
:10241000C01030B16FF08000216808612046FFF7DE
:1024200046FE20680069C0F3002058B12068C068EB
:10243000C0F3C01030B16FF480702168086120468D
:10244000FFF734FE20680069C0F3801058B120689F
:10245000C068C0F3801030B16FF04000216808619F
:10246000204600F04BF820680069C0F3401058B1D6
:102470002068C068C0F3401030B16FF020002168C0
:1024800008612046FFF714FE10BD7047704700003A
:1024900000B503461248834208D11248008840F430
:1024A000004010490880002004F01AF80E488342CA
:1024B0000DD10E480068401C0C49086008460068B1
:1024C000052804D300200A49087008490860094813
:1024D000834204D108480068401C0749086000BDD9
:1024E0002C160220D40E0220781602208C0F022017
:1024F0007F0F0220C4160220880F02207047704709
:10250000704770470146CB6FD1F8802043EA020044
:10251000704700002DE9F04704462068C56920682F
:1025200006682068876840F60F0005EA0009B9F1DF
:10253000000F0CD105F0200048B106F0200030B1AA
:10254000A06E10B12046A16E8847BDE8F087B9F1B2
:10255000000F7DD007F0010018B9C04830400028B6
:10256000F7D005F0010058B106F4807040B10120A9
:1025700021680862D4F8840040F00100C4F88400A7
:1025800005F0020058B107F0010040B102202168B7
:102590000862D4F8840040F00400C4F8840005F018
:1025A000040058B107F0010040B10420216808621E
:1025B000D4F8840040F00200C4F8840005F008005C
:1025C00070B106F0200010B907F0010040B10820FA
:1025D00021680862D4F8840040F00800C4F8840040
:1025E00005F4006060B106F0806048B14FF400600F
:1025F00021680862D4F8840040F02000C4F8840008
:10260000D4F8840000284BD005F0200038B106F043
:10261000200020B1A06E10B12046A16E8847D4F8EA
:1026200084A02068806800F04000402802D00AF0B2
:10263000280070B3204601F034F92068806800F06B
:102640004000402821D100BF00BF2168083100E0D0
:1026500027E051E8001F21F040002168083141E8DF
:102660000002002AF1D100BF606F50B17C48616F59
:102670000865606FFEF70AFE90B1606F016D8847D4
:102680000EE02046FFF73DFF0AE02046FFF739FF46
:1026900006E0FFE72046FFF734FF0020C4F884007F
:1026A00053E7206E01286FD105F0100000286BD091
:1026B00006F010000028FAD0102021680862206877
:1026C000806800F0400040285FD1606F006840687B
:1026D0001FFA80F8B8F1000F55D0B4F85800404503
:1026E00051DDA4F85A80606FC069B0F5807F3FD09B
:1026F00000BF00BF216851E8001F21F480702268EC
:1027000042E800010029F5D100BF00BF00BF2168E9
:10271000083151E8001F21F001002168083141E82B
:102720000002002AF3D100BF00BF00BF21680831BA
:1027300051E8001F21F040002168083141E8000203
:10274000002AF3D100BF2020C4F8800000202066BA
:1027500000BF00BF216851E8001F21F0100022686F
:1027600042E800010029F5D100BF606FFEF738FD97
:1027700002206066B4F85800B4F85A20801A81B27A
:102780002046FFF7BCFEE0E641E034F8580F6188D0
:10279000401A1FFA80F86088583CB8B3B8F1000FAF
:1027A00034D000BF00BF216851E8001F21F49070B1
:1027B000226842E800010029F5D100BF00BF00BF38
:1027C0002168083151E8001F21F00100216808311B
:1027D00041E80002002AF3D100BF2020C4F88000A5
:1027E00000202066A06600BF00BF216851E8001FDE
:1027F00021F01000226842E800010029F5D100BF55
:102800000220606641462046FFF779FE9DE605F40A
:10281000801050B107F4800038B14FF48010216867
:1028200008622046FFF76CFE8FE605F0800040B19D
:1028300006F0800028B1E06E10B12046E16E8847B6
:1028400083E605F0400030B106F0400018B12046A4
:1028500001F05AF879E600BF77E600002001000495
:102860008B38000810B504460CB9012010BDA069D2
:1028700000B100E000BFE06F28B9002084F87800C4
:10288000204600F029F82420E0672068006820F046
:10289000010021680860204601F020F9012800D1DC
:1028A000E4E7606A10B1204600F038FF2068406815
:1028B00020F49040216848602068806820F02A0059
:1028C000216888602068006840F001002168086085
:1028D000204600F09FFFC9E7704770B504460D46DB
:1028E0001646D4F8800020281DD105B10EB901206C
:1028F00070BD002020662068406800F4000060B1D0
:1029000000BF00BF216851E8001F41F080602268CD
:1029100042E800010029F5D100BF32462946204691
:1029200001F07AFAE4E70220E2E700001D4A0168BC
:10293000914236D11C49098801F4004189BB1A49EA
:10294000098801F4804171B1184909780A2903D036
:102950000021154A118024E01349098841F40041FF
:10296000114A11801DE0114909780D2906D10E493F
:10297000098841F480410C4A118012E00B49097822
:10298000094A1288C2F30D02094B99540649098875
:10299000491C054A118011460988C72901DD00211B
:1029A0001180704700100140B40E0220B60E0220C4
:1029B000DC1402202DE9F84F04460E4617469946CE
:1029C000E06F20284DD106B117B90120BDE8F88F7E
:1029D0000020503460632120E062FEF77FFD8246D4
:1029E00027806780503CA068B0F5805F04D12069E3
:1029F00010B90025B04602E035464FF000081DE052
:102A00005346002280212046CDF8009001F07EFA46
:102A100008B10320DAE745B9B8F80000C0F30800B0
:102A20002168886208F1020803E02878216888623A
:102A30006D1CB4F85200401EA4F85200B4F85200C5
:102A40000028DDD15346002240212046CDF80090D9
:102A500001F05CFA08B10320B8E72020E06700200D
:102A6000B4E70220B2E7704700BFFEE700B587B0C9
:102A700000BF1248006840F0020010490860084694
:102A8000006800F00200019000BF00BF44F2810026
:102A900002900120039004900320059002A90848A9
:102AA000FEF708FC012211460548FEF711FD012240
:102AB00002210348FEF70CFD07B000BD303802408C
:102AC000000402402DE9F0410025002701F004FB3D
:102AD0004FF4E13008F0DCFC00BF012211466C48E5
:102AE000FEF7F6FC00BF00206A4908700A2508E0DE
:102AF000322269A169A003F07FFE00B903E0681EDD
:102B0000C5B2002DF4D100BF1DB901242046BDE897
:102B1000F08163480088060A614807783B463246E0
:102B200060A1654802F0FCFF32225BA1624803F01D
:102B300063FE10B100242046E9E75948C2785FA13E
:102B40005D4802F0EDFF322253A15B4803F054FED2
:102B500010B100242046DAE75148437982785AA11F
:102B6000554802F0DDFF32224BA1534803F044FEEA
:102B700010B100242046CAE74948027956A14E48C0
:102B800002F0CEFF322244A14B4803F035FE10B1D3
:102B900000242046BBE74248C27953A1464802F0D0
:102BA000BFFF32223CA1444803F026FE10B10024AE
:102BB0002046ACE73A48027A4FA13F4802F0B0FF06
:102BC000322235A13C4803F017FE10B10024204604
:102BD0009DE73348427A4BA1374802F0A1FF3222E9
:102BE0002DA1354803F008FE10B1002420468EE7E1
:102BF0002B48827947A1304802F092FF322226A169
:102C00002D4803F0F9FD10B1002420467FE7244849
:102C1000C37A827A43A1284802F082FF32221EA1A1
:102C2000254803F0E9FD10B1002420466FE71C4859
:102C3000027B40A1204802F073FF322216A11E48F9
:102C400003F0DAFD10B10024204660E700BF002247
:102C500001210F48FEF73CFC00BF322003F092FC3C
:102C600000BF4FF400413648FEF72AFC0028F8D197
:102C700034490880012007490870094AD17A907ABE
:102C800008F06AFB0120FDF74FFE002420463EE7D6
:102C9000001802405E0F02204F4B0000415400001C
:102CA000500F022041542B414444523D253032788C
:102CB0002C2530327800000054DB022041542B4E8A
:102CC000455449443D25640041542B574C524154CE
:102CD000453D25642C25640041542B54504F5745E5
:102CE000523D25640000000041542B43574D4F4492
:102CF000453D25640000000041542B544D4F444590
:102D00003D25640041542B5041434B53495A453DA6
:102D10002564000041542B574C54494D453D2564D2
:102D20000000000041542B554152543D25642C2590
:102D30006400000041542B4C42543D2564000000C7
:102D400000100240D40E022070B50446002505484C
:102D5000007A20B9214604A008F0F0FB00E000BF93
:102D600070BD0000500F022025730D0A0000000006
:102D700030B585B0C82003F005FC002500210720F0
:102D800008F0EAFA00BF4FF400415448FEF798FB00
:102D90000028F8D100BF012211465148FEF798FBE8
:102DA00000BF282003F0EEFB00204E4908704E487B
:102DB0000088040A4C4805782B4622464BA16846F9
:102DC00002F0AEFE32224EA1684603F015FD4648E1
:102DD000C2784CA1684602F0A3FE322248A16846A0
:102DE00003F00AFD40484379827849A1684602F021
:102DF00097FE322242A1684603F0FEFC3A4802796F
:102E000047A1684602F08CFE32223DA1684603F0DD
:102E1000F3FC3548C27946A1684602F081FE3222B1
:102E200037A1684603F0E8FC2F48027A44A16846BF
:102E300002F076FE322232A1684603F0DDFC2A4819
:102E4000427A42A1684602F06BFE32222CA168460B
:102E500003F0D2FC2448827940A1684602F060FE6B
:102E6000322227A1684603F0C7FC1F48C37A827A42
:102E70003EA1684602F054FE322221A1684603F0CA
:102E8000BBFC1948027B3DA1684602F049FE322294
:102E90001BA1684603F0B0FC00BF002201211048CE
:102EA000FEF716FB00BF282003F06CFB00BF4FF4B9
:102EB00000410A48FEF704FB0028F8D13249088097
:102EC000012008490870084AD17A907A08F044FA3B
:102ED0000120FDF729FD05B030BD000000100240C3
:102EE000001802405E0F0220500F022041542B4177
:102EF0004444523D253032782C2530327800000091
:102F00004F4B000041542B4E455449443D2564002D
:102F100041542B574C524154453D25642C256400A7
:102F200041542B54504F5745523D2564000000003A
:102F300041542B43574D4F44453D2564000000004C
:102F400041542B544D4F44453D25640041542B5072
:102F500041434B53495A453D2564000041542B578A
:102F60004C54494D453D25640000000041542B550B
:102F70004152543D25642C256400000041542B4CE3
:102F800042543D2564000000D40E02201FB5FEF718
:102F900023FB01208DF80000002001901F208DF8F8
:102FA000080000208DF80B008DF80F008DF80E0042
:102FB00001208DF80D0000208DF801008DF80A0029
:102FC00087208DF8090001208DF80C006846FEF777
:102FD000D5FA0420FEF716FB1FBD00BFFEE77047C1
:102FE00002480068C0F30220704700000CED00E0CA
:102FF00010B5002807DA0A07140E054A00F00F037F
:103000001B1FD45403E00A07130E024A135410BDC9
:1030100018ED00E000E400E0F0B589B006460024B9
:103020004DE000F0D1F80546E8B28DF80000280A1E
:103030008DF80100280C8DF80200280E8DF8030091
:10304000002301AA0421684604F0FCFB01270020AC
:1030500006E001A9095C09B9002703E0411CC8B2D8
:103060002028F6DB00BF17B9601E84B225E00020DF
:1030700007E001A9095C00EB4412134B9954411C71
:10308000C8B22028F5DB0127701EA04210D17101C3
:1030900000230E4A0C4804F0D5FB002005E00B4944
:1030A000095C09B9002702E0401C2028F7D300BFC3
:1030B00017B9601E84B200E000BF601C84B2B44245
:1030C000AFDB09B0F0BD000002E2022022E50220E1
:1030D00030B599B0202111A8FDF752F9402101A87F
:1030E000FDF74EF901245AE0304800783049087065
:1030F000012048702F48007888700846C4702D4819
:103100000078844202D00420087109E02948007840
:10311000401E29490978042202FB10102449087135
:10312000234800794007000E2149087108460579B7
:10313000002009E0611E00EBC111204A525C411DD4
:103140001B4B5A54411CC8B2A842F3DB1848007903
:10315000411D002311AA164804F074FB01A911A80F
:1031600007F0DAFE002007E001A90A5C4119491DB9
:103170000F4B5A54411CC8B24028F5DB00210C4AC1
:1031800005F13500115402200D4908701046FFF773
:10319000DBFD0C48008803F0F5F9601CC4B205485B
:1031A00000788442A0DD19B030BD0000700F02200D
:1031B000C4DE02207B0F02207A0F022002E20220EE
:1031C0005E0F0220960F022010B50248FEF707FF9F
:1031D00010BD0000E41F022070B504460D460548EE
:1031E000FEF7FDFE291B491CB0FBF1F201FB1200AA
:1031F000204470BDE41F022010B500240E480F4982
:1032000008600846FEF7F7FE04E0601C84B20A205E
:1032100003F0D8F909480068406800F0010018B9C7
:1032200042F210708442F0DB42F21070844201DB03
:10323000012010BD0020FCE700080650E41F02201A
:1032400010B50023234C236000BF00BF00BFBFF3B5
:103250004F8F00BF00BF00BF231F1868C0F34E315F
:1032600000BFC0F3C90200BF43F6E07303EA411395
:103270004FF0404404EA82742343174C236000BF9C
:1032800000BF131EA2F10102EED10B1EA1F101013C
:10329000E7D100BF00BF00BFBFF34F8F00BF00BF2B
:1032A00000BF0C4B703B1B6843F48033094C703CEF
:1032B000236000BF00BF00BFBFF34F8F00BF00BF40
:1032C00000BF00BF00BF00BFBFF36F8F00BF00BFD4
:1032D00000BF10BD84ED00E060EF00E030B599B0B4
:1032E0000546202111A8FDF74BF8402101A8FDF764
:1032F00047F825480078254908700320487024487D
:103300000078213088700846C570012006E0214908
:103310000A5CC11C1D4B5A54411CC8B21C49097897
:103320008842F4DD19488478002008E01A490A5CD4
:10333000A4F11D010144154B5A54411CC8B2202868
:10334000F4DB002311AAE11C104804F07BFA01A968
:1033500011A807F0E1FD002007E001A90A5CE11CCB
:1033600001440A4B5A54411CC8B23028F5DB0021F5
:10337000064A04F13300115402200849087010462F
:10338000FFF7E2FC19B030BD700F0220C4DE02204E
:103390006C0F022066E5022022E502205E0F02206B
:1033A00030B599B00546202111A8FCF7E9FF40216E
:1033B00001A8FCF7E5FF25480078254908700220A0
:1033C000487024480078213088700846C570012074
:1033D00006E021490A5CC11C1D4B5A54411CC8B26D
:1033E0001C4909788842F4DD19488478002008E0F7
:1033F0001A490A5CA4F11D010144154B5A54411CA1
:10340000C8B22028F4DB002311AAE11C104804F004
:1034100019FA01A911A807F07FFD002007E001A912
:103420000A5CE11C01440A4B5A54411CC8B23028C2
:10343000F5DB0021064A04F133001154022008494B
:1034400008701046FFF780FC19B030BD700F0220E5
:10345000C4DE02206C0F022058E5022022E5022083
:103460005E0F022070B504460D461B200D49887082
:10347000FFF77EFC0C48007830300C4908702B4672
:1034800022460BA10948401C02F04AFB02200D49CC
:1034900008700648FFF758FC002002498870FFF7C3
:1034A00067FC70BD500F0220700F0220C4DE0220A6
:1034B0004920616D20646F6E652125647C7C2564E4
:1034C000000000005E0F02200146302905DB39298B
:1034D00003DCA1F13000C0B27047A1F15700C0B2C7
:1034E000FAE7000010B5064801780120FFF774FEE6
:1034F0000446044800884443204603F043F810BDC6
:103500006C0F0220740F0220FF21104A117000215D
:103510000F4A11600E492439096841F001010C4A33
:10352000243A116005E001780A4A1278914200DBE2
:1035300003E0064909780029F5D100BF0449243980
:103540000968034A243A1160704700007F0F022087
:10355000240C0040950F022003E00348007800B1DE
:1035600000E0FAE700BF70477E0F022010B509F0B7
:1035700023F8012801D008F0A1FCFDF7B5FF10BD2C
:1035800000B593B0012001904FF4A02002900020DC
:1035900004900220079041050891082109914FF4F9
:1035A000D8710A9102210B9109210C9107210D91EB
:1035B00001A8FEF747FA08B100BFFEE7FEF7B2F830
:1035C00008B100BFFEE70F200E9002200F900020F0
:1035D00010904FF4A05011904FF48050129007219A
:1035E0000EA8FEF7E7F808B100BFFEE713B000BD74
:1035F0000348006840F4700001490860704700000B
:1036000088ED00E010B50248FEF763FE10BD000033
:103610001017022010B50248FEF75BFE10BD000037
:10362000C416022010B50248FEF753FE10BD00007C
:103630007816022010B50248FEF74BFE10BD0000C0
:103640002C16022010B50268294B98420ED0B0F11A
:10365000804F0BD0274B984208D0274B984205D07B
:10366000264B984202D0264B984203D122F070029A
:103670004B681A431E4B984220D0B0F1804F1DD0AA
:103680001C4B98421AD01C4B984217D01B4B9842A7
:1036900014D01B4B984211D01A4B98420ED01A4BA3
:1036A00098420BD0194B984208D0194B984205D03C
:1036B000184B984202D0184B984203D122F4407222
:1036C000CB681A4322F080034C6943EA040202608B
:1036D0008B68C3620B688362054B984202D0084B2B
:1036E000984201D10B6903630123436110BD0000BF
:1036F000000001400004004000080040000C0040B1
:1037000000040140004001400044014000480140E5
:1037100000180040001C00400020004090F82410D9
:1037200001F0010139B10168496821F40031826A70
:1037300011430268516090F8241001F0020102293F
:1037400007D10168496821F48031C26A11430268D7
:10375000516090F8241001F00401042907D1016898
:10376000496821F48021026B11430268516090F88E
:10377000241001F00801082907D10168496821F4E3
:103780000041426B11430268516090F8241001F02F
:103790001001102907D10168896821F48051826BDA
:1037A00011430268916090F8241001F02001202953
:1037B00007D10168896821F40051C26B1143026886
:1037C000916090F8241001F04001402913D1016864
:1037D000496821F48011026C114302685160016C48
:1037E000B1F5801F07D10168496821F4C001426C1E
:1037F00011430268516090F8241001F08001802983
:1038000007D10168496821F40021826C11430268E4
:103810005160704738B504460020C4F88400FDF7B5
:103820005DFE05462068006800F0080008280CD1FD
:103830006FF07E402B4600224FF40011009020468E
:1038400000F064FB08B1032038BD2068006800F078
:10385000040004280CD16FF07E402B4600224FF468
:1038600080010090204600F051FB08B10320EBE7F7
:103870002020E067C4F8800000202066606600BF5A
:1038800084F8780000BF00BFDEE770B50546AC6B7A
:103890000020A4F85A00A4F852002046FEF731FE9A
:1038A00070BD00BF00BF026852E8002F22F4907183
:1038B000036843E80012002AF5D100BF00BF00BF33
:1038C0000268083252E8002F22F001010268083233
:1038D00042E80013002BF3D100BF016E01290CD187
:1038E00000BF00BF026852E8002F22F010010368F9
:1038F00043E80012002AF5D100BF2021C0F8801053
:10390000002101668166704710B5044600BF00BF04
:10391000216851E8001F21F04000226842E80001C0
:103920000029F5D100BF2020E0670020E066204696
:10393000FFF799F810BD2DE9F0410446B4F85C702A
:10394000D4F88000222858D12068406A86B2656D7C
:1039500006EA07002880606D801C6065B4F85A0094
:10396000401EA4F85A00B4F85A0000284BD100BFFA
:1039700000BF216851E8001F21F49070226842E8DE
:1039800000010029F5D100BF00BF00BF2168083148
:1039900051E8001F21F001002168083141E80002D0
:1039A000002AF3D100BF2020C4F880000020A066C8
:1039B0006066206E01281CD10020206600BF00BF79
:1039C000216851E8001F21F01000226842E8000140
:1039D0000029F5D100BF2068C069C0F3001010B104
:1039E000102021680862B4F858102046FEF787FDC1
:1039F00009E02046FEF79AFF05E02068806940F064
:103A0000080021688861BDE8F08170B50446B4F80B
:103A10005C60D4F88000222858D12068406A85B2C2
:103A2000F0B22840616D0870606D401C6065B4F8AC
:103A30005A00401EA4F85A00B4F85A0000284BD18E
:103A400000BF00BF216851E8001F21F49070226878
:103A500042E800010029F5D100BF00BF00BF216886
:103A6000083151E8001F21F001002168083141E8C8
:103A70000002002AF3D100BF2020C4F880000020FB
:103A8000A0666066206E01281CD10020206600BF61
:103A900000BF216851E8001F21F01000226842E8B1
:103AA00000010029F5D100BF2068C069C0F30010F3
:103AB00010B1102021680862B4F858102046FEF7B3
:103AC0001EFD09E02046FEF731FF05E02068806911
:103AD00040F008002168886170BD00002DE9F047C2
:103AE00005464FF0000A2969A86808436969084338
:103AF000E96940EA010828680068BC49084040EAD2
:103B00000800296808602868406820F44050E96887
:103B1000084329684860D5F81880286A40EA0808F0
:103B20002868806820F4306040EA080029688860CE
:103B300000BFAF492868884216D1AE48006800F03F
:103B4000030030B1012808D0022804D0032808D18E
:103B500005E0012407E0022405E0042403E0082432
:103B600001E0102400BFC9E0A3492868884216D1AB
:103B7000A048006800F00C0030B1042808D00828E4
:103B800004D00C2808D105E0002407E0022405E059
:103B9000042403E0082401E0102400BFAEE09749AC
:103BA0002868884216D19348006800F0300030B190
:103BB000102808D0202804D0302808D105E000249F
:103BC00007E0022405E0042403E0082401E01024B7
:103BD00000BF93E08A492868884216D1854800686A
:103BE00000F0C00030B1402808D0802804D0C028A0
:103BF00008D105E0002407E0022405E0042403E0E6
:103C0000082401E0102400BF78E07E49286888423B
:103C100019D17848006800F4407048B1B0F5807F51
:103C20000AD0B0F5007F05D0B0F5407F08D105E09F
:103C3000002407E0022405E0042403E0082401E056
:103C4000102400BF5AE070492868884219D1694899
:103C5000006800F4406048B1B0F5806F0AD0B0F55C
:103C6000006F05D0B0F5406F08D105E0012407E0F2
:103C7000022405E0042403E0082401E0102400BF2E
:103C80003CE062492868884219D15A48006800F42B
:103C9000405048B1B0F5805F0AD0B0F5005F05D064
:103CA000B0F5405F08D105E0002407E0022405E0FC
:103CB000042403E0082401E0102400BF1EE054495E
:103CC0002868884219D14B48006800F4404048B148
:103CD000B0F5804F0AD0B0F5004F05D0B0F5404F99
:103CE00008D105E0002407E0022405E0042403E0F5
:103CF000082401E0102400BF00E0102400BFE869A0
:103D0000B0F5004F39D1092C17D2DFE804F00509CE
:103D10000D160F1616161300FDF71CFE064610E0D2
:103D2000FDF728FE06460CE03A4E0AE0FDF732FEAB
:103D3000064606E04FF4004603E000264FF0010A75
:103D400000BF00BF86B37000696800EB5100B0FB94
:103D5000F1F7102F0ED3B7F5803F0BD24FF6F0706E
:103D600007EA0009C7F3420049EA00092868C0F8D9
:103D70000C9034E04FF0010A31E0092C18D2DFE852
:103D800004F005090D170F1717171400FDF7E2FDD2
:103D9000064611E0FDF7EEFD06460DE01D4E0BE078
:103DA000FDF7F8FD064607E019E04FF4004603E092
:103DB00000264FF0010A00BF00BF86B1686806EB1D
:103DC00050006968B0FBF1F7102F06D3B7F5803FBC
:103DD00003D2B8B22968C86001E04FF0010A0020A0
:103DE000A866E8665046BDE8F0870000F369FFEF7B
:103DF000001001409038024000440040004800405C
:103E0000004C004000500040001401400078004089
:103E1000007C00400024F40030B503465965A3F847
:103E20005820A3F85A200020986600BF9868B0F583
:103E3000805F0AD1186920B940F2FF10A3F85C0036
:103E400020E0FF20A3F85C001CE0986848B91869DE
:103E500018B9FF20A3F85C0014E07F20A3F85C00F1
:103E600010E09868B0F1805F09D1186918B97F2017
:103E7000A3F85C0006E03F20A3F85C0002E000200D
:103E8000A3F85C0000BF0020C3F884002220C3F820
:103E9000800000BF00BF1C68083454E8004F44F0A5
:103EA00001001C68083444E80005002DF3D100BF70
:103EB0009868B0F5805F04D1186910B91148986608
:103EC00001E011489866186960B100BF00BF1C6826
:103ED00054E8004F44F490701D6845E80004002C3D
:103EE000F5D10CE000BF00BF1C6854E8004F44F05F
:103EF00020001D6845E80004002CF5D100BF00201B
:103F000030BD0000373900080B3A00082DE9F041B8
:103F100004460D4617469846069E69E0701C002828
:103F200066D0FDF7DBFAA0EB0800B04200D83EBB3C
:103F300000BF00BF216851E8001F21F4D070226843
:103F400042E800010029F5D100BF00BF00BF216891
:103F5000083151E8001F21F001002168083141E8D3
:103F60000002002AF3D100BF2020E067C4F88000DF
:103F700000BF002084F8780000BF0320BDE8F08176
:103F80002068006800F0040088B32068C069C0F3AE
:103F9000C02060B34FF400602168086200BF00BF1A
:103FA000216851E8001F21F4D070226842E8000126
:103FB0000029F5D100BF00BF00BF2168083151E8DA
:103FC000001F21F001002168083141E80002002AA9
:103FD000F3D100BF2020E067C4F88000C4F884005B
:103FE00000BF002084F8780000BF0320C6E7FFE789
:103FF0002068C0692840A84201D1012000E00020CB
:10400000B8428BD00020B9E770B500240F4D10489E
:10401000FEF780FA00BF03E0641CAC4200D904E064
:104020000B48FEF76FFA2028F6D100BF002403E00A
:10403000641CAC4200D906E0012206490448FEF7A0
:104040004CFC0028F4D100BF70BD0000FFFF010050
:10405000A4150220B60E022010B51A48FEF75AFA2F
:1040600018480068C069C0F3401048B3154800689C
:10407000406AC4B21448008800F40040F8B91248FD
:104080000088B0F5806F14DA1048007840B900203D
:1040900002F020FA0C48008810B9012002F020FA42
:1040A000094801880088401C074A10800848445489
:1040B00005E00548008840F400400349088000BF3F
:1040C00010BD00005C1F0220D40E02205E0F0220F3
:1040D0005C17022000BFFEE708B500BF00BF1C4808
:1040E000006840F040001A4908600846006800F087
:1040F0004000009000BF00BF00BF00BF00BF0846E7
:10410000006840F0100008600846006800F01000E9
:10411000009000BF00BF00BF01200E49086048604A
:1041200088600220C8600C48FDF7C4F84FF40040D6
:104130000849086000204860022088600748FDF7B1
:10414000B9F8022200212820FDF799FA08BD0000E5
:104150003038024040DB02200018024000100240CC
:104160002DE9F04705460E4617461C46B4F90210E5
:1041700001F11F00C11700EBD16149114FFA81F81D
:10418000B4F90290434604F124022946304600F077
:1041900017F838B9B9EB481F06DA4946304600F03F
:1041A000DBFC08B1012000E000208246434604F118
:1041B00024023146384600F003F85046BDE8F08747
:1041C000F0B505460C460026002115E054F8217094
:1041D00052F821C06744B81954F82170874207D0BB
:1041E00054F82170874201D9012700E000273E469C
:1041F00045F82100481C41B29942E7DB3046F0BD4A
:104200002DE9F04188B006460F46144623463A464B
:104210003146684600F022F808B1012000E0002095
:1042200080462146684600F067FA05460DB9012030
:1042300000E00020022101FB180040B208B0BDE8F8
:10424000F08110B50346002005E051F8204043F806
:104250002040441C60B29042F7DB10BDF0B505462B
:104260000C460026002116E054F8217052F821C0B7
:10427000A7EB0C07B81B54F82170874207D054F8FD
:104280002170874201D2012700E000273E4645F811
:104290002100481C41B29942E6DB3046F0BD2DE9D1
:1042A000F04FABB081460F4692469B46359D95F93F
:1042B00000603246394623A8FFF7C3FF07EB8601AB
:1042C000324613A8FFF7BDFF0BAB1BAA13A923A807
:1042D000CDE900B500F0D0FC3498801E0FFA80F8CC
:1042E00039E04146504600F037FC08B9012000E0B3
:1042F000002004460DF12C0C0CEB44130DF16C0C5A
:104300000CEB4412C4F1010C0DF12C0E0EEB4C1110
:10431000C4F1010C0DF16C0E0EEB4C10009501F088
:1043200063FBC4F1010C0DF12C0E0EEB4C13C4F128
:10433000010C0DF16C0E0EEB4C120DF12C0C0CEB74
:104340004411F4460CEB4410009501F094FAA8F1E6
:1043500001000FFA80F8B8F1000FC2DC00215046CE
:1043600000F0FAFB08B9012000E0002004460DF13E
:104370002C0C0CEB44130DF16C0C0CEB4412C4F13F
:10438000010C0DF12C0E0EEB4C11C4F1010C0DF1D2
:104390006C0E0EEB4C10009501F026FB2B1D1BAA9A
:1043A00023A903A8009600F072FAC4F101000BA93A
:1043B00001EB40122B4603A903A800F0FDFD2B469C
:1043C0003A4603A903A800F0F7FD33462A1D03A9C6
:1043D00003A800F0C3F907EB86022B4603A903A844
:1043E00000F0EAFDC4F101001BA901EB40122B46CD
:1043F00003A903A800F0E0FDC4F1010C0DF12C0E9F
:104400000EEB4C13C4F1010C0DF16C0E0EEB4C12C3
:104410000DF12C0C0CEB4411F4460CEB4410009500
:1044200001F029FA2B4603AA0BA91BA801F004FAF4
:1044300032461BA94846FFF704FF09EB86003246C7
:104440000BA9FFF7FEFE2BB0BDE8F08F2DE9FF4F63
:10445000A5B08B4690461D4605A80390CDF810B038
:104460002946404600F04CFBC0EB851006B23046B2
:10447000F11706EBD16149114FFA81F9F11706EBFB
:10448000D1614911A6EB41114FFA81FA0020029047
:10449000494615A800F0E2F8BAF1000F16DD002435
:1044A00011E058F8240000FA0AF00299084309EBD9
:1044B000040115AA42F8210058F82400CAF120018D
:1044C000C8400290641CAC42EBD306E015A901EB96
:1044D00089002A464146FFF7B4FE01244BE0002044
:1044E0000190002725E003A951F8241051F8271066
:1044F00015AA52F827208A1A0199501A03A951F8CF
:10450000241051F8271081420AD003A951F8241031
:1045100051F82710814201D2012100E000210191D0
:10452000C4F1010103AA52F8211041F82700781CB8
:1045300047B2B7EB450FD6DB0198604008B90120C0
:1045400000E000200446294615A800F0F4FA681E91
:1045500015A951F8200011F8251040EAC171681E14
:1045600015AA42F8201015A901EB8500294600F094
:10457000E2FA701E06B2002EB1DA03A850F8241039
:104580002A462598FFF75DFE29B0BDE8F08F2DE99A
:10459000FF470746884691461D460020039002903B
:1045A000019000241BE000260CE001A8A21B009053
:1045B00059F8221058F8260002AB03AA01F015F9A9
:1045C000701C46B2A642F0DD039847F8240002981A
:1045D00003900198029000200190601C44B2AC420C
:1045E000E1DB2C461DE0601C401B46B20CE001A83C
:1045F000A21B009059F8221058F8260002AB03AA1B
:1046000001F0F3F8701C46B2AE42F0DB039847F8B5
:104610002400029803900198029000200190601CF1
:1046200044B20120C0EB4500A042DCDC0121C1EB1B
:104630004501039847F82100BDE8FF8702460B4675
:10464000581E41B201E0481E41B2002903DB52F876
:1046500021000028F7D0481C40B2704702460020D5
:1046600004E0002342F82030431C58B28842F8DBB3
:10467000704770B503460C460025501E41B207E056
:1046800053F8210054F8216070400543481E41B2A0
:104690000029F5DA0DB9012070BD0020FCE700000B
:1046A000F0B589B005460E4614461C2102A8FBF75A
:1046B00067FE10480068019094F900702246314668
:1046C000284600F09AFD231D01AA29462846009796
:1046D00000F0DDF8234632462946284600F06CFCFF
:1046E000231D04F1840229462846009700F016F89D
:1046F00009B0F0BDA4CE000810B502460B46002458
:10470000002104E052F821000443481C41B29942C0
:10471000F8DB0CB9012010BD0020FCE72DE9F047C3
:1047200005460F4690461C46089E3346424639468B
:104730002846FFF745FD8146B9F1000F06D1324604
:104740002946204600F0D2FA012805D033462246F9
:1047500029462846FFF782FDBDE8F0872DE9F041A4
:10476000A0B080460E4617461C4621463046FFF74D
:10477000C3FF30B121464046FFF770FF20B0BDE8CF
:10478000F0812246314618A8FFF75BFD22463946E4
:1047900010A8FFF756FD214608A8FFF75FFF01208C
:1047A000089021466846FFF759FF62E0189800F02C
:1047B000010048B9214618A800F0BDF92246394643
:1047C00008A800F0EDF954E0109800F0010048B995
:1047D000214610A800F0AFF922463946684600F09D
:1047E000DFF946E0002D22DD234610AA18A918A8FB
:1047F000FFF734FD214618A800F09DF922466946CE
:1048000008A800F073FA002805DA23463A4608A9FA
:1048100008A8FFF7D5FC23466A4608A908A8FFF7B1
:104820001DFD2246394608A800F0BAF921E02346CA
:1048300018AA10A910A8FFF711FD214610A800F032
:104840007AF9224608A9684600F050FA002805DAED
:1048500023463A4669466846FFF7B2FC234608AA53
:1048600069466846FFF7FAFC22463946684600F07A
:1048700097F9224610A918A800F038FA051E95D11C
:10488000224608A94046FFF7DCFC00BF76E72DE989
:10489000F04704460E4617461D46DDF82080434685
:1048A0003A4631462046FFF7D9FC8146B9F1000F60
:1048B00005D043462A4621462046FFF781FCBDE845
:1048C000F0870000F0B591B007460C461C210AA8FD
:1048D000FBF756FD1A48006809901C2102A8FBF757
:1048E0004FFD1748001D0068019094F900603346A1
:1048F00009AA211D09A8FFF763FC314609A800F0A9
:10490000FFF8401E05B211E0224601A901A800F0FF
:1049100074FC294609A800F01FF928B123463A463D
:1049200001A901A800F048FB681E05B2012DEBDCCF
:10493000324601A93846FFF784FC11B0F0BD0000F3
:10494000A8CE00082DE9FF4FA5B080461E46DDE940
:1049500032941DA8139015A8149094F900A0B4F9EE
:10496000021001F11F00C11700EBD16149114DB2D6
:10497000B4F90200029051463046FFF7BDFE38B947
:104980002A46314604F12400FFF73AFC012803D0FF
:10499000002029B0BDE8F08F234615AA1DA9304696
:1049A000FFF7DEFB07460298401C00B2CDE9000489
:1049B0000FB9012000E0002013A951F820200023A6
:1049C00004F1440103A8FFF76AFC514603A8FFF76E
:1049D00093FE08B10020DCE73C48006830B9294666
:1049E0001DA8FFF73BFE01201D9008E02A4604F1B8
:1049F00024011DA800F036FE08B90020C9E704F123
:104A000024031DAA31463046009500F061F82B467C
:104A100004F1240231463046FFF7A0FE04F12403DE
:104A20001DAA31463046009500F052F894F9011065
:104A300003AA484600F025FBB4F9020000F1070B79
:104A40004FEAEB700BEB5070C21041461DA800F00E
:104A5000F3FA0021681E15AA42F82010524603A955
:104A600015A8FFF7EEFB04F1240315AA1DA915A84C
:104A7000009500F02DF823461DA8DDE9261200F070
:104A80005FFF04F1240315AA1DA915A80095FFF7DF
:104A900045FE04F12403324615A915A8009500F03F
:104AA00017F8294615A800F02BF894F90110B0EB7F
:104AB000C10F01DD00206CE794F9011001EB090042
:104AC00015AA00F0DEFA012063E70000980F02202B
:104AD0002DE9F04190B005460E4617461C46DDF81C
:104AE000588043463A4631466846FFF750FD4346F4
:104AF000224669462846FFF7A9FC10B0BDE8F081C0
:104B00002DE9F0410746884641463846FFF796FDB5
:104B1000064616B90020BDE8F081701E57F82050F7
:104B2000002401E06D08641C002DFBD1701E04EB15
:104B3000401000B2EFE730B50246002400EB8100E0
:104B400005E0036844EA53050560DC0700BF03463F
:104B5000001F9342F5D830BD10B50246481152F8F7
:104B6000200001F01F040123A340184010BDF8B538
:104B700005460E46144622463146284600F03DFBC7
:104B8000234632462946284600F016FA0820231DFF
:104B900004F18402294600902846FFF7BFFDF8BDC6
:104BA0002DE9F04104460E4615460027207800F016
:104BB000010030B12B46324621462046FFF700FB6C
:104BC000074629462046FFF7B6FF3FB1681E54F856
:104BD000200040F00041681E44F82010BDE8F0813C
:104BE00070B5ACB004460E46234609AA10A917A812
:104BF000009400F043F909A810A917AB1EAACDE94B
:104C0000001025A902A800F093F9012520E0072251
:104C100002A917A8FFF715FB072225A910A8FFF77F
:104C200010FB07221EA909A8FFF70BFB09A810A972
:104C300017AB1EAACDE9001025A902A800F078F94B
:104C4000072102A8FFF758FD00B103E0681C05B278
:104C50005F2DDCDD00BF0723064A10A91EA8FFF761
:104C60007DFD044B1B1F1EAA17A9204600F0A4F9C6
:104C70002CB070BD8CCC00082DE9F04788B00646FA
:104C80008A4617461C46DDE9108595F90090B8F173
:104C9000000F05D04A4641466846FFF7D2FA05E0C4
:104CA00049466846FFF7DAFC012000904A46314643
:104CB0003846FFF7C6FA4A4651462046FFF7C1FA82
:104CC0002B466A465146304600F0B6FD2B466A46F2
:104CD00051463046D5F8A4C0E0472B466A462146E7
:104CE000384600F0A9FD08B0BDE8F08730B50346AE
:104CF0000C46501E41B212E053F8210054F82150E6
:104D0000A84201D9012030BD53F8210054F82150A8
:104D1000A84202D24FF0FF30F5E7481E41B2002909
:104D2000EADA0020EFE72DE9F04104460E460522BD
:104D30003146201DFFF785FA0521201DFFF7FBFEF8
:104D40003078C00720600523324621462046FFF711
:104D500037FA0546052709E054F8272000235019A3
:104D600043EB030144F827000D467F1C002DF3D1CF
:104D7000BDE8F0812DE9F04104460F4600250026EC
:104D80000EE040F2D13257F82630A2FB03C21CEBF2
:104D9000050042F1000144F826000D46701C46B2A1
:104DA000082EEEDB256208233A46211D201DFFF761
:104DB00007FA6062BDE8F0812DE9F04F8FB08146BF
:104DC0000D4614461E46DDE91A8BDDE918A72A4B6D
:104DD0005A46394608A800F0EFF8274B324608A992
:104DE00008A800F0E9F80720234B1B1D08AA194664
:104DF000009008A8FFF74BFD1F4B4246514601A803
:104E000000F0DAF807201C4B1B1D08AA01A900902E
:104E100001A8FFF783FC184B5A46514608A800F03A
:104E2000CBF8154B3A464146284600F0C5F8072016
:104E3000114B1B1D08AA294600902846FFF76EFC5F
:104E40000D4A2946204600F0D8F90B4B3246214640
:104E5000204600F0B1F80720074B1B1D22461946DB
:104E600000902046FFF713FD072201A94846FFF7EF
:104E7000E8F90FB0BDE8F08F88CC00082DE9F047C5
:104E80009AB004460D4616461F46DDF888A04FF03E
:104E9000010918210DA8FBF773FA234800680C904C
:104EA0000722514613A8FFF7CCF907201F4B3A46BB
:104EB0001946009005A8FFF7EAFC4FF000082DE026
:104EC00005A80CA913AB3246CDE90109009129468A
:104ED000204600F085F80CA813A93B463246CDE9E0
:104EE0000045CDE9021029462046FFF765FF07225D
:104EF000214613A8FFF7A5F9072229460CA8FFF7BA
:104F0000A0F90722314605A8FFF79BF94FEA4900AF
:104F10004FFA80F908F101004FFA80F8B8F1060F56
:104F2000CEDD1AB0BDE8F087B0CE00088CCC00080A
:104F30002DE9F04389B007460C4615461E46DDE9CB
:104F400010891C4A314602A800F057F9194B424615
:104F50003146204600F030F80720164B1B1D4A460C
:104F600002A900903846FFF7D9FB0720114B1B1D03
:104F70002246214600902046FFF7D0FB0D4B4A46C3
:104F800002A9284600F018F807200A4B1B1D2A46E4
:104F9000294600902846FFF7C1FB0720054B1B1D43
:104FA0002A46294600902846FFF7B8FB09B0BDE81D
:104FB000F083000088CC0008F0B591B005460E469D
:104FC00017461C4694F900303A46314601A8FFF7CF
:104FD000DEFA01A92846D4F8B020904711B0F0BD00
:104FE0002DE9FC5F06460C4615461F46DDE90DAB74
:104FF000DDF83090072239463046FFF722F90722C4
:1050000049462046FFF71DF9072251462846FFF77B
:1050100018F94FF001080BE033462A462146304686
:10502000CDE90045FFF784FF08F101000FFA80F891
:10503000D845F1DDBDE8FC9F2DE9F04106460F465D
:10504000144604F103084FEAE87008EB90708010F2
:1050500041B23046FFF702FB00250EE0611E481BFF
:10506000795D8207D20E9140820856F822201143C2
:10507000820846F82210681C45B2A542EEDBBDE866
:10508000F08170B5034600200AE04D1E2C1AA508D9
:1050900052F82550A607F60EF5401D54441C60B288
:1050A0008842F2DB70BD2DE9F04391B00646884698
:1050B00017461D4695F9004021463846FFF71CFB70
:1050C00010B111B0BDE8F0832A46414609A800F0AE
:1050D00094F82B4609AA314601A8FFF76DFF2A462E
:1050E00009A909A800F089F82B463A4641464046EE
:1050F000FFF762FF2A463946384600F07EF82B1D3E
:105100003A46314630460094FFF708FB2B1D3A46DD
:10511000394638460094FFF701FB2B1D3A463146CD
:1051200038460094FFF7B3FB2B463A4631463046EB
:10513000FFF742FF2B1D3246314638460094FFF7F9
:10514000EDFA2B1D3A46314630460094FFF7E6FA59
:1051500000213046FFF700FD98B123462A1D314655
:105160003046FFF72DF8814621463046FFF7E3FC35
:10517000601E56F8200040EAC971601E46F82010F3
:1051800003E021463046FFF7D6FC2A463146384632
:1051900000F033F82B1D01AA394638460094FFF77A
:1051A00076FB2B1D01AA394638460094FFF76FFBAA
:1051B0002B1D3A4601A901A80094FFF768FB2B4676
:1051C00001AA31463046FFF7F7FE2B1D09AA3146EA
:1051D00009A80094FFF75BFB224639463046FFF7EB
:1051E00030F8224641463846FFF72BF8224609A9F7
:1051F0004046FFF726F800BF63E770B506460C4649
:1052000015462B46224621463046FFF7D5FE70BD97
:1052100070B58AB006460C4605216846FFF71EFAAF
:10522000052105A8FFF71AFA04F114016846FFF7F3
:105230007AFD05236A4621463046FEF7C1FF054642
:1052400005212046FFF70AFA05A92046FFF76BFD66
:105250000523224631463046FEF7B2FF054406E0FC
:105260006D1E05230A4A31463046FEF7F7FF002D32
:10527000F6D1052206493046FFF738FD002805DD46
:105280000523034A31463046FEF7E8FF0AB070BDF9
:1052900024CB000870B586B006460C46062221468F
:1052A0003046FEF7CEFF062204F118016846FEF7ED
:1052B000C8FF06236A4631463046FEF781FF0546A1
:1052C000002001900090A0690290E0690390206A9C
:1052D0000490606A059006236A4631463046FEF720
:1052E0006FFF0544A06A02900090E06A039001906D
:1052F00000200590049006236A4631463046FEF7AA
:105300005FFF054406E00623084A31463046FEF7B3
:10531000A5FF2D1A002DF6D1062231460348FFF7CE
:10532000E5FC0128EFD106B070BD0000D8CB000825
:1053300070B588B006460C46072221463046FEF777
:1053400080FF0020039002900190E0690490206AA1
:105350000590606A0690A06A0790072301AA31466B
:105360003046FEF72DFF0546E06A0490206B05905D
:10537000606B069000200790072301AA3146304653
:10538000FEF71EFF0544E0690190206A0290606A02
:105390000390A06A0490E06A0590206B0690606B11
:1053A0000790072301AA31463046FEF757FF2D1A12
:1053B000E06A0190206B0290606B039000200790E0
:1053C000069005900490072301AA31463046FEF767
:1053D00045FF2D1A002D0ADA00BF07230D4A31467A
:1053E0003046FEF7EDFE0544002DF6DB10E006E04A
:1053F0000723084A31463046FEF730FF2D1A002DAC
:10540000F6D1072231460348FFF770FC0128EFD19F
:1054100008B070BD8CCC000870B590B006460C4644
:1054200008216846FFF71AF9082108A8FFF716F9BE
:1054300004F120016846FFF79DFC08236A462146D7
:105440003046FEF7BDFE054608212046FFF706F967
:1054500008A92046FFF78EFC082322463146304635
:10546000FEF7AEFE054406E06D1E08230A4A3146EB
:105470003046FEF7F3FE002DF6D1082206493046ED
:10548000FFF734FC002805DD0823034A3146304687
:10549000FEF7E4FE10B070BDF4CD000870B588B022
:1054A00006460C46082221463046FEF7CAFE00207A
:1054B000029001900090E06A0390206B0490606B72
:1054C0000590A06B0690E06B079008236A4669463A
:1054D0006846FEF775FE054608236A4631463046A3
:1054E000FEF76EFE0544206B0390606B0490A06B8A
:1054F0000590E06B06900020079008236A466946F5
:105500006846FEF75DFE054408236A46314630468C
:10551000FEF756FE0544206A0090606A0190A06A7A
:1055200002900020059004900390A06B0690E06B21
:10553000079008236A4631463046FEF741FE05448F
:10554000606A0090A06A0190E06A0290606B03902C
:10555000A06B0490E06B0590606B0690206A07904A
:1055600008236A4631463046FEF72AFE0544E06AC3
:105570000090206B0190606B0290002005900490D9
:105580000390206A0690A06A079008236A46314675
:105590003046FEF763FE2D1A206B0090606B019081
:1055A000A06B0290E06B0390002005900490606A6D
:1055B0000690E06A079008236A4631463046FEF7B7
:1055C0004DFE2D1A606B0090A06B0190E06B029075
:1055D000206A0390606A0490A06A059000200690FB
:1055E000206B079008236A4631463046FEF736FEA8
:1055F0002D1AA06B0090E06B019000200290606A71
:105600000390A06A0490E06A059000200690606B09
:10561000079008236A4631463046FEF71FFE2D1AD2
:10562000002D0ADA00BF08230D4A31463046FEF746
:10563000C7FD0544002DF6DB10E006E00823084A0C
:1056400031463046FEF70AFE2D1A002DF6D108220B
:1056500031460348FFF74AFB0128EFD108B070BD7F
:1056600040CD00082DE9F04705460F4614464FF09F
:10567000FF3821463846FFF743FA8146164800684E
:1056800010B90020BDE8F087002620E0A1002846E0
:10569000114A1268904708B90020F3E7601E55F8D8
:1056A0002000C9EB441128FA01F10840611E45F8B9
:1056B000210021462846FFF71FF838B9224629461F
:1056C0003846FEF79DFD012800D1DBE7761C402E11
:1056D000DCD30020D6E70000980F02202DE9F0412E
:1056E00092B006460D4617461C4608213846FFF77D
:1056F00003F810B112B0BDE8F0812246294602A895
:10570000FFF77BFD234602AA31460AA8FFF754FCA7
:10571000224631463046FFF770FD224602A902A814
:10572000FFF76BFD23463A4629463846FFF744FC0F
:105730000820231D3246314600902846FEF7EEFF32
:105740000820231D3246294600902846FEF7E6FF32
:1057500000212846FFF700FA78B10823221D2946C8
:105760002846FEF72DFD804608212846FFF7E3F97D
:10577000E86940EAC870E86103E008212846FFF7BD
:10578000DAF9224629463046FFF737FD0820231D67
:105790000AAA314600903046FFF779F80820231D09
:1057A0000AAA314600903046FFF771F80820231D01
:1057B00032460AA900900AA8FFF769F823460AAA08
:1057C00029462846FFF7F8FB0820231D02AA294690
:1057D00000902846FFF75BF800BF8BE702468A423D
:1057E00001DD104670470846FCE72DE9F04F0746FB
:1057F0008C46099EA7FB0C4845464FF0000AD3F89B
:105800000080D2F800904AEA090048EA0A0100192B
:105810006941D6F80080B0EB040971EB050902D2AA
:105820004FF0010901E04FF00009C844C6F80080BC
:1058300019601060BDE8F08FF0B589B004460D46E0
:1058400016461F463A46314601A8FFF7D6FC3B46AE
:1058500001AA21462046FFF7AFFB3B46324601A98D
:1058600001A8FFF7A9FB3B4601AA29462846FFF7F6
:10587000A3FB09B0F0BD2DE9F04389B006460F4601
:1058800090469946109C94F90050231D324641469B
:1058900001A80095FEF7FBFF224601A901A8FFF72A
:1058A000ACFC234601AA31463046FFF785FB234670
:1058B00001AA41464046FFF77FFB231D3A46494671
:1058C00048460095FEF7E3FF2246494601A8FFF748
:1058D00094FC231D324601A901A80095FEF7D7FFCD
:1058E000231D424601A901A80095FEF7D0FF231D04
:1058F0003246414640460095FEF7C9FF23464246E0
:1059000039463846FFF758FB231D01AA3146404669
:105910000095FEF7BCFF2346424649464846FFF73E
:105920004BFB231D3A46494648460095FEF7AFFF1C
:105930002A4601A94046FEF784FC09B0BDE8F08381
:105940002DE9FF5F064615461C46B4F90210C81D36
:10595000C11700EB51714FEAE10AB4F9021001F1ED
:105960001F00C11700EBD1614F11554500D95546B5
:1059700079B23046FEF772FE2A4630460199FFF7AB
:105980005BFBB4F90200B0EBC50F01D3BDE8FF9F8C
:10599000B4F90200C0EBC5094FF0000B06EB870815
:1059A0000CE0D8F8000020FA09F141EA0B01C8F830
:1059B0000010C9F1200100FA01FB00BF4046A8F128
:1059C0000408B042EDD87AB2314604F12400FFF762
:1059D0008DF9012806D07BB204F12402314630460D
:1059E000FEF73CFC00BFD1E72DE9F04399B0064635
:1059F0000F4690469946209C94F90050231D32464C
:105A0000414611A80095FEF742FF224611A911A8B0
:105A1000FFF7F3FB234611AA31463046FFF7CCFAD5
:105A2000234611AA41464046FFF7C6FA231D3A46CF
:105A3000494611A80095FEF771FE231D3A464946D6
:105A400048460095FEF723FF231D3246414609A82C
:105A50000095FEF71CFF234609AA39463846FFF792
:105A6000ABFA231D4246314609A80095FEF756FEC3
:105A7000224649464046FFF7C0FB231D09AA41467E
:105A800040460095FEF703FF231D4246314601A81C
:105A90000095FEF7FCFE234601AA49464846FFF75B
:105AA0008BFA231D3A46494648460095FEF7EFFE1D
:105AB000224611A901A8FFF7A0FB231D09AA01A9ED
:105AC00001A80095FEF7E3FE231D324601A909A8AF
:105AD0000095FEF7DCFE234611AA09A909A8FFF7E5
